:100000000C949A000C94AC000C94AC000C94AC00D2
:100010000C94AC000C94AC000C94AC000C94AC00B0
:100020000C94AC000C94AC000C94AC000C94AC00A0
:100030000C94AC000C94AC000C94AC000C94AC0090
:100040000C94AC000C94AC000C94AC000C94AC0080
:100050000C94AC000C94AC000C94AC000C94AC0070
:100060000C94AC000C94AC0048656C6C6F20576F1E
:10007000726C64210A00002C021E021F0031022152
:10008000022202230231022502260230003000360D
:100090000038003702240027001E001F0020002126
:1000A00000220023002400250026023702360236F3
:1000B000002E02370238401402040205020602072D
:1000C00002080209020A020B020C020D020E020FC4
:1000D0000210021102120213021402150216021774
:1000E00002180219021A021B021D021C40250031CF
:1000F00040260223022D00350004000500060007FB
:1001000000080009000A000B000C000D000E000F93
:100110000010001100120013001400150016001743
:1001200000180019001A001B001D001C4024023199
:100130004027023511241FBECFEFD8E0DEBFCDBF70
:1001400021E0A0E0B1E001C01D92A830B207E1F7C4
:100150000E94BE000C9403010C94000080E091E02A
:10016000FC01208101963091C00035FFFCCF209327
:10017000C60021E08830920799F7089588E18093BE
:10018000C10086E08093C20087E68093C40010928D
:10019000C5002FEF83E294EF215080409040E1F7BB
:1001A00000C00000C8E6D0E01BE208E2FE01849136
:1001B000811101C0FFCF8A3071F4109200010093C9
:1001C00002010E94AE0010920001109202010E94F2
:1001D000AE002196EBCF893029F4109200011093E4
:1001E0000201EFCF8052990B880F991FFC01EA584A
:1001F000FF4FE491E0930001FC01E958FF4FE491C7
:0A020000E0930201DECFF894FFCF77
:00000001FF
